{
  "_format": "hh-sol-artifact-1",
  "contractName": "TokenFarmV2",
  "sourceName": "contracts/TokenFarmV2.sol",
  "abi": [
    {
      "inputs": [
        {
          "internalType": "contract DAppToken",
          "name": "_dappToken",
          "type": "address"
        },
        {
          "internalType": "contract LPToken",
          "name": "_lpToken",
          "type": "address"
        }
      ],
      "stateMutability": "nonpayable",
      "type": "constructor"
    },
    {
      "anonymous": false,
      "inputs": [
        {
          "indexed": true,
          "internalType": "address",
          "name": "user",
          "type": "address"
        },
        {
          "indexed": false,
          "internalType": "uint256",
          "name": "amount",
          "type": "uint256"
        },
        {
          "indexed": false,
          "internalType": "uint256",
          "name": "timestamp",
          "type": "uint256"
        }
      ],
      "name": "Deposit",
      "type": "event"
    },
    {
      "anonymous": false,
      "inputs": [
        {
          "indexed": true,
          "internalType": "address",
          "name": "owner",
          "type": "address"
        },
        {
          "indexed": false,
          "internalType": "uint256",
          "name": "oldValue",
          "type": "uint256"
        },
        {
          "indexed": false,
          "internalType": "uint256",
          "name": "newValue",
          "type": "uint256"
        },
        {
          "indexed": false,
          "internalType": "uint256",
          "name": "timestamp",
          "type": "uint256"
        }
      ],
      "name": "EarlyWithdrawalPenaltyChanged",
      "type": "event"
    },
    {
      "anonymous": false,
      "inputs": [
        {
          "indexed": true,
          "internalType": "address",
          "name": "owner",
          "type": "address"
        },
        {
          "indexed": false,
          "internalType": "bool",
          "name": "stopped",
          "type": "bool"
        },
        {
          "indexed": false,
          "internalType": "uint256",
          "name": "timestamp",
          "type": "uint256"
        }
      ],
      "name": "EmergencyStopToggled",
      "type": "event"
    },
    {
      "anonymous": false,
      "inputs": [
        {
          "indexed": true,
          "internalType": "address",
          "name": "owner",
          "type": "address"
        },
        {
          "indexed": false,
          "internalType": "uint256",
          "name": "amount",
          "type": "uint256"
        },
        {
          "indexed": false,
          "internalType": "uint256",
          "name": "timestamp",
          "type": "uint256"
        }
      ],
      "name": "FeesWithdrawn",
      "type": "event"
    },
    {
      "anonymous": false,
      "inputs": [
        {
          "indexed": true,
          "internalType": "address",
          "name": "oldOwner",
          "type": "address"
        },
        {
          "indexed": true,
          "internalType": "address",
          "name": "newOwner",
          "type": "address"
        },
        {
          "indexed": false,
          "internalType": "uint256",
          "name": "timestamp",
          "type": "uint256"
        }
      ],
      "name": "OwnerChanged",
      "type": "event"
    },
    {
      "anonymous": false,
      "inputs": [
        {
          "indexed": true,
          "internalType": "address",
          "name": "owner",
          "type": "address"
        },
        {
          "indexed": false,
          "internalType": "uint256",
          "name": "oldValue",
          "type": "uint256"
        },
        {
          "indexed": false,
          "internalType": "uint256",
          "name": "newValue",
          "type": "uint256"
        },
        {
          "indexed": false,
          "internalType": "uint256",
          "name": "timestamp",
          "type": "uint256"
        }
      ],
      "name": "RewardPerBlockChanged",
      "type": "event"
    },
    {
      "anonymous": false,
      "inputs": [
        {
          "indexed": true,
          "internalType": "address",
          "name": "user",
          "type": "address"
        },
        {
          "indexed": false,
          "internalType": "uint256",
          "name": "amount",
          "type": "uint256"
        },
        {
          "indexed": false,
          "internalType": "uint256",
          "name": "fee",
          "type": "uint256"
        },
        {
          "indexed": false,
          "internalType": "uint256",
          "name": "netAmount",
          "type": "uint256"
        },
        {
          "indexed": false,
          "internalType": "uint256",
          "name": "timestamp",
          "type": "uint256"
        }
      ],
      "name": "RewardsClaimed",
      "type": "event"
    },
    {
      "anonymous": false,
      "inputs": [
        {
          "indexed": true,
          "internalType": "address",
          "name": "owner",
          "type": "address"
        },
        {
          "indexed": false,
          "internalType": "uint256",
          "name": "totalUsers",
          "type": "uint256"
        },
        {
          "indexed": false,
          "internalType": "uint256",
          "name": "timestamp",
          "type": "uint256"
        }
      ],
      "name": "RewardsDistributed",
      "type": "event"
    },
    {
      "anonymous": false,
      "inputs": [
        {
          "indexed": true,
          "internalType": "address",
          "name": "owner",
          "type": "address"
        },
        {
          "indexed": false,
          "internalType": "uint256",
          "name": "oldValue",
          "type": "uint256"
        },
        {
          "indexed": false,
          "internalType": "uint256",
          "name": "newValue",
          "type": "uint256"
        },
        {
          "indexed": false,
          "internalType": "uint256",
          "name": "timestamp",
          "type": "uint256"
        }
      ],
      "name": "StakingLockPeriodChanged",
      "type": "event"
    },
    {
      "anonymous": false,
      "inputs": [
        {
          "indexed": true,
          "internalType": "address",
          "name": "user",
          "type": "address"
        },
        {
          "indexed": false,
          "internalType": "uint256",
          "name": "amount",
          "type": "uint256"
        },
        {
          "indexed": false,
          "internalType": "uint256",
          "name": "penalty",
          "type": "uint256"
        },
        {
          "indexed": false,
          "internalType": "uint256",
          "name": "timestamp",
          "type": "uint256"
        }
      ],
      "name": "Withdraw",
      "type": "event"
    },
    {
      "anonymous": false,
      "inputs": [
        {
          "indexed": true,
          "internalType": "address",
          "name": "owner",
          "type": "address"
        },
        {
          "indexed": false,
          "internalType": "uint256",
          "name": "oldValue",
          "type": "uint256"
        },
        {
          "indexed": false,
          "internalType": "uint256",
          "name": "newValue",
          "type": "uint256"
        },
        {
          "indexed": false,
          "internalType": "uint256",
          "name": "timestamp",
          "type": "uint256"
        }
      ],
      "name": "WithdrawalFeeChanged",
      "type": "event"
    },
    {
      "inputs": [],
      "name": "BASIS_POINTS_DENOMINATOR",
      "outputs": [
        {
          "internalType": "uint256",
          "name": "",
          "type": "uint256"
        }
      ],
      "stateMutability": "view",
      "type": "function"
    },
    {
      "inputs": [],
      "name": "VERSION",
      "outputs": [
        {
          "internalType": "uint256",
          "name": "",
          "type": "uint256"
        }
      ],
      "stateMutability": "view",
      "type": "function"
    },
    {
      "inputs": [],
      "name": "accumulatedFees",
      "outputs": [
        {
          "internalType": "uint256",
          "name": "",
          "type": "uint256"
        }
      ],
      "stateMutability": "view",
      "type": "function"
    },
    {
      "inputs": [],
      "name": "claimRewards",
      "outputs": [],
      "stateMutability": "nonpayable",
      "type": "function"
    },
    {
      "inputs": [],
      "name": "dappToken",
      "outputs": [
        {
          "internalType": "contract DAppToken",
          "name": "",
          "type": "address"
        }
      ],
      "stateMutability": "view",
      "type": "function"
    },
    {
      "inputs": [
        {
          "internalType": "uint256",
          "name": "_amount",
          "type": "uint256"
        }
      ],
      "name": "deposit",
      "outputs": [],
      "stateMutability": "nonpayable",
      "type": "function"
    },
    {
      "inputs": [],
      "name": "distributeRewardsAll",
      "outputs": [],
      "stateMutability": "nonpayable",
      "type": "function"
    },
    {
      "inputs": [],
      "name": "earlyWithdrawalPenalty",
      "outputs": [
        {
          "internalType": "uint256",
          "name": "",
          "type": "uint256"
        }
      ],
      "stateMutability": "view",
      "type": "function"
    },
    {
      "inputs": [],
      "name": "emergencyStop",
      "outputs": [
        {
          "internalType": "bool",
          "name": "",
          "type": "bool"
        }
      ],
      "stateMutability": "view",
      "type": "function"
    },
    {
      "inputs": [],
      "name": "emergencyWithdraw",
      "outputs": [],
      "stateMutability": "nonpayable",
      "type": "function"
    },
    {
      "inputs": [],
      "name": "getAccumulatedFees",
      "outputs": [
        {
          "internalType": "uint256",
          "name": "",
          "type": "uint256"
        }
      ],
      "stateMutability": "view",
      "type": "function"
    },
    {
      "inputs": [],
      "name": "getContractInfo",
      "outputs": [
        {
          "internalType": "string",
          "name": "contractName",
          "type": "string"
        },
        {
          "internalType": "uint256",
          "name": "version",
          "type": "uint256"
        },
        {
          "internalType": "uint256",
          "name": "totalStakers",
          "type": "uint256"
        },
        {
          "internalType": "uint256",
          "name": "totalStaked",
          "type": "uint256"
        },
        {
          "internalType": "bool",
          "name": "isEmergencyStopped",
          "type": "bool"
        }
      ],
      "stateMutability": "view",
      "type": "function"
    },
    {
      "inputs": [
        {
          "internalType": "address",
          "name": "user",
          "type": "address"
        }
      ],
      "name": "getPendingRewards",
      "outputs": [
        {
          "internalType": "uint256",
          "name": "",
          "type": "uint256"
        }
      ],
      "stateMutability": "view",
      "type": "function"
    },
    {
      "inputs": [
        {
          "internalType": "uint256",
          "name": "index",
          "type": "uint256"
        }
      ],
      "name": "getStakerByIndex",
      "outputs": [
        {
          "internalType": "address",
          "name": "",
          "type": "address"
        }
      ],
      "stateMutability": "view",
      "type": "function"
    },
    {
      "inputs": [],
      "name": "getStakerCount",
      "outputs": [
        {
          "internalType": "uint256",
          "name": "",
          "type": "uint256"
        }
      ],
      "stateMutability": "view",
      "type": "function"
    },
    {
      "inputs": [
        {
          "internalType": "address",
          "name": "user",
          "type": "address"
        }
      ],
      "name": "getStakingBalance",
      "outputs": [
        {
          "internalType": "uint256",
          "name": "",
          "type": "uint256"
        }
      ],
      "stateMutability": "view",
      "type": "function"
    },
    {
      "inputs": [
        {
          "internalType": "address",
          "name": "user",
          "type": "address"
        }
      ],
      "name": "getUserInfo",
      "outputs": [
        {
          "internalType": "uint256",
          "name": "stakingBalance",
          "type": "uint256"
        },
        {
          "internalType": "uint256",
          "name": "checkpoint",
          "type": "uint256"
        },
        {
          "internalType": "uint256",
          "name": "pendingRewards",
          "type": "uint256"
        },
        {
          "internalType": "bool",
          "name": "hasStaked",
          "type": "bool"
        },
        {
          "internalType": "bool",
          "name": "isStaking",
          "type": "bool"
        },
        {
          "internalType": "uint256",
          "name": "totalRewardsClaimed",
          "type": "uint256"
        },
        {
          "internalType": "uint256",
          "name": "lastClaimBlock",
          "type": "uint256"
        },
        {
          "internalType": "uint256",
          "name": "stakingStartBlock",
          "type": "uint256"
        }
      ],
      "stateMutability": "view",
      "type": "function"
    },
    {
      "inputs": [],
      "name": "getVersion",
      "outputs": [
        {
          "internalType": "uint256",
          "name": "",
          "type": "uint256"
        }
      ],
      "stateMutability": "pure",
      "type": "function"
    },
    {
      "inputs": [],
      "name": "getWithdrawalFeeRate",
      "outputs": [
        {
          "internalType": "uint256",
          "name": "",
          "type": "uint256"
        }
      ],
      "stateMutability": "view",
      "type": "function"
    },
    {
      "inputs": [],
      "name": "lpToken",
      "outputs": [
        {
          "internalType": "contract LPToken",
          "name": "",
          "type": "address"
        }
      ],
      "stateMutability": "view",
      "type": "function"
    },
    {
      "inputs": [],
      "name": "maxRewardPerBlock",
      "outputs": [
        {
          "internalType": "uint256",
          "name": "",
          "type": "uint256"
        }
      ],
      "stateMutability": "view",
      "type": "function"
    },
    {
      "inputs": [],
      "name": "minRewardPerBlock",
      "outputs": [
        {
          "internalType": "uint256",
          "name": "",
          "type": "uint256"
        }
      ],
      "stateMutability": "view",
      "type": "function"
    },
    {
      "inputs": [],
      "name": "name",
      "outputs": [
        {
          "internalType": "string",
          "name": "",
          "type": "string"
        }
      ],
      "stateMutability": "view",
      "type": "function"
    },
    {
      "inputs": [],
      "name": "owner",
      "outputs": [
        {
          "internalType": "address",
          "name": "",
          "type": "address"
        }
      ],
      "stateMutability": "view",
      "type": "function"
    },
    {
      "inputs": [],
      "name": "rewardPerBlock",
      "outputs": [
        {
          "internalType": "uint256",
          "name": "",
          "type": "uint256"
        }
      ],
      "stateMutability": "view",
      "type": "function"
    },
    {
      "inputs": [
        {
          "internalType": "uint256",
          "name": "_newPenaltyBasisPoints",
          "type": "uint256"
        }
      ],
      "name": "setEarlyWithdrawalPenalty",
      "outputs": [],
      "stateMutability": "nonpayable",
      "type": "function"
    },
    {
      "inputs": [
        {
          "internalType": "uint256",
          "name": "_newRewardPerBlock",
          "type": "uint256"
        }
      ],
      "name": "setRewardPerBlock",
      "outputs": [],
      "stateMutability": "nonpayable",
      "type": "function"
    },
    {
      "inputs": [
        {
          "internalType": "uint256",
          "name": "_minReward",
          "type": "uint256"
        },
        {
          "internalType": "uint256",
          "name": "_maxReward",
          "type": "uint256"
        }
      ],
      "name": "setRewardRange",
      "outputs": [],
      "stateMutability": "nonpayable",
      "type": "function"
    },
    {
      "inputs": [
        {
          "internalType": "uint256",
          "name": "_newLockPeriod",
          "type": "uint256"
        }
      ],
      "name": "setStakingLockPeriod",
      "outputs": [],
      "stateMutability": "nonpayable",
      "type": "function"
    },
    {
      "inputs": [
        {
          "internalType": "uint256",
          "name": "_newFeeBasisPoints",
          "type": "uint256"
        }
      ],
      "name": "setWithdrawalFee",
      "outputs": [],
      "stateMutability": "nonpayable",
      "type": "function"
    },
    {
      "inputs": [
        {
          "internalType": "uint256",
          "name": "",
          "type": "uint256"
        }
      ],
      "name": "stakers",
      "outputs": [
        {
          "internalType": "address",
          "name": "",
          "type": "address"
        }
      ],
      "stateMutability": "view",
      "type": "function"
    },
    {
      "inputs": [],
      "name": "stakingLockPeriod",
      "outputs": [
        {
          "internalType": "uint256",
          "name": "",
          "type": "uint256"
        }
      ],
      "stateMutability": "view",
      "type": "function"
    },
    {
      "inputs": [],
      "name": "toggleEmergencyStop",
      "outputs": [],
      "stateMutability": "nonpayable",
      "type": "function"
    },
    {
      "inputs": [],
      "name": "totalStakingBalance",
      "outputs": [
        {
          "internalType": "uint256",
          "name": "",
          "type": "uint256"
        }
      ],
      "stateMutability": "view",
      "type": "function"
    },
    {
      "inputs": [
        {
          "internalType": "address",
          "name": "newOwner",
          "type": "address"
        }
      ],
      "name": "transferOwnership",
      "outputs": [],
      "stateMutability": "nonpayable",
      "type": "function"
    },
    {
      "inputs": [
        {
          "internalType": "address",
          "name": "",
          "type": "address"
        }
      ],
      "name": "userInfo",
      "outputs": [
        {
          "internalType": "uint256",
          "name": "stakingBalance",
          "type": "uint256"
        },
        {
          "internalType": "uint256",
          "name": "checkpoint",
          "type": "uint256"
        },
        {
          "internalType": "uint256",
          "name": "pendingRewards",
          "type": "uint256"
        },
        {
          "internalType": "bool",
          "name": "hasStaked",
          "type": "bool"
        },
        {
          "internalType": "bool",
          "name": "isStaking",
          "type": "bool"
        },
        {
          "internalType": "uint256",
          "name": "totalRewardsClaimed",
          "type": "uint256"
        },
        {
          "internalType": "uint256",
          "name": "lastClaimBlock",
          "type": "uint256"
        },
        {
          "internalType": "uint256",
          "name": "stakingStartBlock",
          "type": "uint256"
        }
      ],
      "stateMutability": "view",
      "type": "function"
    },
    {
      "inputs": [],
      "name": "withdraw",
      "outputs": [],
      "stateMutability": "nonpayable",
      "type": "function"
    },
    {
      "inputs": [],
      "name": "withdrawFees",
      "outputs": [],
      "stateMutability": "nonpayable",
      "type": "function"
    },
    {
      "inputs": [],
      "name": "withdrawalFeeBasisPoints",
      "outputs": [
        {
          "internalType": "uint256",
          "name": "",
          "type": "uint256"
        }
      ],
      "stateMutability": "view",
      "type": "function"
    }
  ],
  "bytecode": "0x60806040526040518060400160405280601a81526020017f50726f706f7274696f6e616c20546f6b656e204661726d205632000000000000815250600090816200004a919062000425565b503480156200005857600080fd5b50604051620040c2380380620040c283398181016040528101906200007e9190620005cf565b81600260006101000a81548173ffffffffffffffffffffffffffffffffffffffff021916908373ffffffffffffffffffffffffffffffffffffffff16021790555080600360006101000a81548173ffffffffffffffffffffffffffffffffffffffff021916908373ffffffffffffffffffffffffffffffffffffffff16021790555033600160006101000a81548173ffffffffffffffffffffffffffffffffffffffff021916908373ffffffffffffffffffffffffffffffffffffffff160217905550670de0b6b3a764000060048190555067016345785d8a0000600581905550678ac7230489e8000060068190555061012c6008819055506064600a819055506101f4600b819055506000600c60006101000a81548160ff021916908315150217905550505062000616565b600081519050919050565b7f4e487b7100000000000000000000000000000000000000000000000000000000600052604160045260246000fd5b7f4e487b7100000000000000000000000000000000000000000000000000000000600052602260045260246000fd5b600060028204905060018216806200022d57607f821691505b602082108103620002435762000242620001e5565b5b50919050565b60008190508160005260206000209050919050565b60006020601f8301049050919050565b600082821b905092915050565b600060088302620002ad7fffffffffffffffffffffffffffffffffffffffffffffffffffffffffffffffff826200026e565b620002b986836200026e565b95508019841693508086168417925050509392505050565b6000819050919050565b6000819050919050565b60006200030662000300620002fa84620002d1565b620002db565b620002d1565b9050919050565b6000819050919050565b6200032283620002e5565b6200033a62000331826200030d565b8484546200027b565b825550505050565b600090565b6200035162000342565b6200035e81848462000317565b505050565b5b8181101562000386576200037a60008262000347565b60018101905062000364565b5050565b601f821115620003d5576200039f8162000249565b620003aa846200025e565b81016020851015620003ba578190505b620003d2620003c9856200025e565b83018262000363565b50505b505050565b600082821c905092915050565b6000620003fa60001984600802620003da565b1980831691505092915050565b6000620004158383620003e7565b9150826002028217905092915050565b6200043082620001ab565b67ffffffffffffffff8111156200044c576200044b620001b6565b5b62000458825462000214565b620004658282856200038a565b600060209050601f8311600181146200049d576000841562000488578287015190505b62000494858262000407565b86555062000504565b601f198416620004ad8662000249565b60005b82811015620004d757848901518255600182019150602085019450602081019050620004b0565b86831015620004f75784890151620004f3601f891682620003e7565b8355505b6001600288020188555050505b505050505050565b600080fd5b600073ffffffffffffffffffffffffffffffffffffffff82169050919050565b60006200053e8262000511565b9050919050565b6000620005528262000531565b9050919050565b620005648162000545565b81146200057057600080fd5b50565b600081519050620005848162000559565b92915050565b6000620005978262000531565b9050919050565b620005a9816200058a565b8114620005b557600080fd5b50565b600081519050620005c9816200059e565b92915050565b60008060408385031215620005e957620005e86200050c565b5b6000620005f98582860162000573565b92505060206200060c85828601620005b8565b9150509250929050565b613a9c80620006266000396000f3fe608060405234801561001057600080fd5b506004361061023d5760003560e01c80637cc1f8671161013b578063db2e21bc116100b8578063f6ed20171161007c578063f6ed201714610612578063fd5e6dd114610642578063ffa1ad7414610672578063ffba884514610690578063ffd14bc2146106ae5761023d565b8063db2e21bc14610580578063dd3fc0f91461058a578063e0639364146105ba578063e766c835146105d8578063f2fde38b146105f65761023d565b8063b04ef9c2116100ff578063b04ef9c2146104f0578063b6b55f2514610520578063bb872b4a1461053c578063cfa498a314610558578063db03e227146105765761023d565b80637cc1f8671461045a5780638a2e98f31461047c5780638ae39cac146104985780638da5cb5b146104b6578063ac1e5025146104d45761023d565b80633ccfd60b116101c95780635df45a371161018d5780635df45a37146103ab5780635eb186f8146103c95780635fcbd285146103e75780636386c1c71461040557806363a599a41461043c5761023d565b80633ccfd60b146103535780633de34a3d1461035d578063476343ee146103795780634b7aac9414610383578063587f5ed71461038d5761023d565b80631319649d116102105780631319649d146102ba5780631959a002146102d85780631f45f5011461030f578063291a3d9e1461032b578063372500ab146103495761023d565b8063038de77e1461024257806306fdde031461026057806309be19f91461027e5780630d8e6e2c1461029c575b600080fd5b61024a6106cc565b6040516102579190612a71565b60405180910390f35b6102686106d2565b6040516102759190612b1c565b60405180910390f35b610286610760565b6040516102939190612a71565b60405180910390f35b6102a4610766565b6040516102b19190612a71565b60405180910390f35b6102c261076f565b6040516102cf9190612a71565b60405180910390f35b6102f260048036038101906102ed9190612ba1565b61077c565b604051610306989796959493929190612be9565b60405180910390f35b61032960048036038101906103249190612c93565b6107de565b005b610333610939565b6040516103409190612a71565b60405180910390f35b61035161093f565b005b61035b610c31565b005b61037760048036038101906103729190612cc0565b610fe4565b005b610381611134565b005b61038b61133e565b005b61039561147b565b6040516103a29190612a71565b60405180910390f35b6103b3611481565b6040516103c09190612a71565b60405180910390f35b6103d161148b565b6040516103de9190612d5f565b60405180910390f35b6103ef6114b1565b6040516103fc9190612d9b565b60405180910390f35b61041f600480360381019061041a9190612ba1565b6114d7565b604051610433989796959493929190612be9565b60405180910390f35b6104446115e8565b6040516104519190612db6565b60405180910390f35b6104626115fb565b604051610473959493929190612dd1565b60405180910390f35b61049660048036038101906104919190612c93565b6116bd565b005b6104a0611818565b6040516104ad9190612a71565b60405180910390f35b6104be61181e565b6040516104cb9190612e3a565b60405180910390f35b6104ee60048036038101906104e99190612c93565b611844565b005b61050a60048036038101906105059190612ba1565b61199f565b6040516105179190612a71565b60405180910390f35b61053a60048036038101906105359190612c93565b6119eb565b005b61055660048036038101906105519190612c93565b611e36565b005b610560611fd6565b60405161056d9190612a71565b60405180910390f35b61057e611fdc565b005b6105886121d4565b005b6105a4600480360381019061059f9190612c93565b61252d565b6040516105b19190612e3a565b60405180910390f35b6105c26125bc565b6040516105cf9190612a71565b60405180910390f35b6105e06125c2565b6040516105ed9190612a71565b60405180910390f35b610610600480360381019061060b9190612ba1565b6125c8565b005b61062c60048036038101906106279190612ba1565b612828565b6040516106399190612a71565b60405180910390f35b61065c60048036038101906106579190612c93565b612874565b6040516106699190612e3a565b60405180910390f35b61067a6128b3565b6040516106879190612a71565b60405180910390f35b6106986128b8565b6040516106a59190612a71565b60405180910390f35b6106b66128c2565b6040516106c39190612a71565b60405180910390f35b60085481565b600080546106df90612e84565b80601f016020809104026020016040519081016040528092919081815260200182805461070b90612e84565b80156107585780601f1061072d57610100808354040283529160200191610758565b820191906000526020600020905b81548152906001019060200180831161073b57829003601f168201915b505050505081565b60055481565b60006002905090565b6000600d80549050905090565b600e6020528060005260406000206000915090508060000154908060010154908060020154908060030160009054906101000a900460ff16908060030160019054906101000a900460ff16908060040154908060050154908060060154905088565b600160009054906101000a900473ffffffffffffffffffffffffffffffffffffffff1673ffffffffffffffffffffffffffffffffffffffff163373ffffffffffffffffffffffffffffffffffffffff161461086e576040517f08c379a000000000000000000000000000000000000000000000000000000000815260040161086590612f27565b60405180910390fd5b6127108111156108b3576040517f08c379a00000000000000000000000000000000000000000000000000000000081526004016108aa90612fb9565b60405180910390fd5b6000600a54905081600a81905550600160009054906101000a900473ffffffffffffffffffffffffffffffffffffffff1673ffffffffffffffffffffffffffffffffffffffff167f0943d17ad370b54b373d9acbe14c9b041993c2514351f97c1f58ba1b0868dde882844260405161092d93929190612fd9565b60405180910390a25050565b600b5481565b600c60009054906101000a900460ff161561098f576040517f08c379a00000000000000000000000000000000000000000000000000000000081526004016109869061305c565b60405180910390fd5b6000600e60003373ffffffffffffffffffffffffffffffffffffffff1673ffffffffffffffffffffffffffffffffffffffff16815260200190815260200160002060020154905060008111610a19576040517f08c379a0000000000000000000000000000000000000000000000000000000008152600401610a10906130c8565b60405180910390fd5b600061271060085483610a2c9190613117565b610a369190613188565b905060008183610a4691906131b9565b90506000600e60003373ffffffffffffffffffffffffffffffffffffffff1673ffffffffffffffffffffffffffffffffffffffff1681526020019081526020016000206002018190555080600e60003373ffffffffffffffffffffffffffffffffffffffff1673ffffffffffffffffffffffffffffffffffffffff1681526020019081526020016000206004016000828254610ae291906131ed565b9250508190555043600e60003373ffffffffffffffffffffffffffffffffffffffff1673ffffffffffffffffffffffffffffffffffffffff168152602001908152602001600020600501819055508160096000828254610b4291906131ed565b92505081905550600260009054906101000a900473ffffffffffffffffffffffffffffffffffffffff1673ffffffffffffffffffffffffffffffffffffffff166340c10f1933836040518363ffffffff1660e01b8152600401610ba6929190613221565b600060405180830381600087803b158015610bc057600080fd5b505af1158015610bd4573d6000803e3d6000fd5b505050503373ffffffffffffffffffffffffffffffffffffffff167f5619b8583bbbb0760d27ac9ff844cec866b333bf7ad0262c2d809ff42f22e5fc84848442604051610c24949392919061324a565b60405180910390a2505050565b600e60003373ffffffffffffffffffffffffffffffffffffffff1673ffffffffffffffffffffffffffffffffffffffff16815260200190815260200160002060030160019054906101000a900460ff16610cc0576040517f08c379a0000000000000000000000000000000000000000000000000000000008152600401610cb7906132db565b60405180910390fd5b600c60009054906101000a900460ff1615610d10576040517f08c379a0000000000000000000000000000000000000000000000000000000008152600401610d079061305c565b60405180910390fd5b6000600e60003373ffffffffffffffffffffffffffffffffffffffff1673ffffffffffffffffffffffffffffffffffffffff16815260200190815260200160002060000154905060008111610d9a576040517f08c379a0000000000000000000000000000000000000000000000000000000008152600401610d9190613347565b60405180910390fd5b6000600e60003373ffffffffffffffffffffffffffffffffffffffff1673ffffffffffffffffffffffffffffffffffffffff1681526020019081526020016000206006015443610dea91906131b9565b90506000600a54821015610e1657612710600b5484610e099190613117565b610e139190613188565b90505b60008184610e2491906131b9565b9050610e2f336128c8565b6000600e60003373ffffffffffffffffffffffffffffffffffffffff1673ffffffffffffffffffffffffffffffffffffffff168152602001908152602001600020600001819055506000600e60003373ffffffffffffffffffffffffffffffffffffffff1673ffffffffffffffffffffffffffffffffffffffff16815260200190815260200160002060030160016101000a81548160ff0219169083151502179055508360076000828254610ee491906131b9565b92505081905550600360009054906101000a900473ffffffffffffffffffffffffffffffffffffffff1673ffffffffffffffffffffffffffffffffffffffff1663a9059cbb33836040518363ffffffff1660e01b8152600401610f48929190613221565b6020604051808303816000875af1158015610f67573d6000803e3d6000fd5b505050506040513d601f19601f82011682018060405250810190610f8b9190613393565b503373ffffffffffffffffffffffffffffffffffffffff167f02f25270a4d87bea75db541cdfe559334a275b4a233520ed6c0a2429667cca94828442604051610fd693929190612fd9565b60405180910390a250505050565b600160009054906101000a900473ffffffffffffffffffffffffffffffffffffffff1673ffffffffffffffffffffffffffffffffffffffff163373ffffffffffffffffffffffffffffffffffffffff1614611074576040517f08c379a000000000000000000000000000000000000000000000000000000000815260040161106b90612f27565b60405180910390fd5b8082106110b6576040517f08c379a00000000000000000000000000000000000000000000000000000000081526004016110ad9061340c565b60405180910390fd5b600081116110f9576040517f08c379a00000000000000000000000000000000000000000000000000000000081526004016110f090613478565b60405180910390fd5b816005819055508060068190555081600454101561111d5781600481905550611130565b80600454111561112f57806004819055505b5b5050565b600160009054906101000a900473ffffffffffffffffffffffffffffffffffffffff1673ffffffffffffffffffffffffffffffffffffffff163373ffffffffffffffffffffffffffffffffffffffff16146111c4576040517f08c379a00000000000000000000000000000000000000000000000000000000081526004016111bb90612f27565b60405180910390fd5b600060095411611209576040517f08c379a0000000000000000000000000000000000000000000000000000000008152600401611200906134e4565b60405180910390fd5b600060095490506000600981905550600260009054906101000a900473ffffffffffffffffffffffffffffffffffffffff1673ffffffffffffffffffffffffffffffffffffffff166340c10f19600160009054906101000a900473ffffffffffffffffffffffffffffffffffffffff16836040518363ffffffff1660e01b8152600401611297929190613221565b600060405180830381600087803b1580156112b157600080fd5b505af11580156112c5573d6000803e3d6000fd5b50505050600160009054906101000a900473ffffffffffffffffffffffffffffffffffffffff1673ffffffffffffffffffffffffffffffffffffffff167fdeb5099d7943aa2b4c1142e5d53d2f7636aa8f7bd130ec79816f151572bcdf458242604051611333929190613504565b60405180910390a250565b600160009054906101000a900473ffffffffffffffffffffffffffffffffffffffff1673ffffffffffffffffffffffffffffffffffffffff163373ffffffffffffffffffffffffffffffffffffffff16146113ce576040517f08c379a00000000000000000000000000000000000000000000000000000000081526004016113c590612f27565b60405180910390fd5b600c60009054906101000a900460ff1615600c60006101000a81548160ff021916908315150217905550600160009054906101000a900473ffffffffffffffffffffffffffffffffffffffff1673ffffffffffffffffffffffffffffffffffffffff167fb2fb6d2775f2376d938026fe376e9cd78b70429d4b4eb1cdd73ad058ca5b1f35600c60009054906101000a900460ff164260405161147192919061352d565b60405180910390a2565b60095481565b6000600954905090565b600260009054906101000a900473ffffffffffffffffffffffffffffffffffffffff1681565b600360009054906101000a900473ffffffffffffffffffffffffffffffffffffffff1681565b6000806000806000806000806000600e60008b73ffffffffffffffffffffffffffffffffffffffff1673ffffffffffffffffffffffffffffffffffffffff168152602001908152602001600020604051806101000160405290816000820154815260200160018201548152602001600282015481526020016003820160009054906101000a900460ff161515151581526020016003820160019054906101000a900460ff1615151515815260200160048201548152602001600582015481526020016006820154815250509050806000015181602001518260400151836060015184608001518560a001518660c001518760e001519850985098509850985098509850985050919395975091939597565b600c60009054906101000a900460ff1681565b606060008060008060006002600d80549050600754600c60009054906101000a900460ff1684805461162c90612e84565b80601f016020809104026020016040519081016040528092919081815260200182805461165890612e84565b80156116a55780601f1061167a576101008083540402835291602001916116a5565b820191906000526020600020905b81548152906001019060200180831161168857829003601f168201915b50505050509450945094509450945094509091929394565b600160009054906101000a900473ffffffffffffffffffffffffffffffffffffffff1673ffffffffffffffffffffffffffffffffffffffff163373ffffffffffffffffffffffffffffffffffffffff161461174d576040517f08c379a000000000000000000000000000000000000000000000000000000000815260040161174490612f27565b60405180910390fd5b6107d0811115611792576040517f08c379a0000000000000000000000000000000000000000000000000000000008152600401611789906135a2565b60405180910390fd5b6000600b54905081600b81905550600160009054906101000a900473ffffffffffffffffffffffffffffffffffffffff1673ffffffffffffffffffffffffffffffffffffffff167f952d8d554c4ea320b07f1d71dacd185c2efbacb0ae68de44b072d88ff90f848d82844260405161180c93929190612fd9565b60405180910390a25050565b60045481565b600160009054906101000a900473ffffffffffffffffffffffffffffffffffffffff1681565b600160009054906101000a900473ffffffffffffffffffffffffffffffffffffffff1673ffffffffffffffffffffffffffffffffffffffff163373ffffffffffffffffffffffffffffffffffffffff16146118d4576040517f08c379a00000000000000000000000000000000000000000000000000000000081526004016118cb90612f27565b60405180910390fd5b6103e8811115611919576040517f08c379a00000000000000000000000000000000000000000000000000000000081526004016119109061360e565b60405180910390fd5b6000600854905081600881905550600160009054906101000a900473ffffffffffffffffffffffffffffffffffffffff1673ffffffffffffffffffffffffffffffffffffffff167f2aa0474f3607eb8e211eaf0643158db0205a2d975cb03da93709ab2d87b84bb182844260405161199393929190612fd9565b60405180910390a25050565b6000600e60008373ffffffffffffffffffffffffffffffffffffffff1673ffffffffffffffffffffffffffffffffffffffff168152602001908152602001600020600001549050919050565b600c60009054906101000a900460ff1615611a3b576040517f08c379a0000000000000000000000000000000000000000000000000000000008152600401611a329061305c565b60405180910390fd5b60008111611a7e576040517f08c379a0000000000000000000000000000000000000000000000000000000008152600401611a759061367a565b60405180910390fd5b600360009054906101000a900473ffffffffffffffffffffffffffffffffffffffff1673ffffffffffffffffffffffffffffffffffffffff166323b872dd3330846040518463ffffffff1660e01b8152600401611add9392919061369a565b6020604051808303816000875af1158015611afc573d6000803e3d6000fd5b505050506040513d601f19601f82011682018060405250810190611b209190613393565b5080600e60003373ffffffffffffffffffffffffffffffffffffffff1673ffffffffffffffffffffffffffffffffffffffff1681526020019081526020016000206000016000828254611b7391906131ed565b925050819055508060076000828254611b8c91906131ed565b92505081905550600e60003373ffffffffffffffffffffffffffffffffffffffff1673ffffffffffffffffffffffffffffffffffffffff16815260200190815260200160002060030160009054906101000a900460ff16611ced57600d339080600181540180825580915050600190039060005260206000200160009091909190916101000a81548173ffffffffffffffffffffffffffffffffffffffff021916908373ffffffffffffffffffffffffffffffffffffffff1602179055506001600e60003373ffffffffffffffffffffffffffffffffffffffff1673ffffffffffffffffffffffffffffffffffffffff16815260200190815260200160002060030160006101000a81548160ff02191690831515021790555043600e60003373ffffffffffffffffffffffffffffffffffffffff1673ffffffffffffffffffffffffffffffffffffffff168152602001908152602001600020600601819055505b6001600e60003373ffffffffffffffffffffffffffffffffffffffff1673ffffffffffffffffffffffffffffffffffffffff16815260200190815260200160002060030160016101000a81548160ff0219169083151502179055506000600e60003373ffffffffffffffffffffffffffffffffffffffff1673ffffffffffffffffffffffffffffffffffffffff1681526020019081526020016000206001015403611dda5743600e60003373ffffffffffffffffffffffffffffffffffffffff1673ffffffffffffffffffffffffffffffffffffffff168152602001908152602001600020600101819055505b611de3336128c8565b3373ffffffffffffffffffffffffffffffffffffffff167f90890809c654f11d6e72a28fa60149770a0d11ec6c92319d6ceb2bb0a4ea1a158242604051611e2b929190613504565b60405180910390a250565b600160009054906101000a900473ffffffffffffffffffffffffffffffffffffffff1673ffffffffffffffffffffffffffffffffffffffff163373ffffffffffffffffffffffffffffffffffffffff1614611ec6576040517f08c379a0000000000000000000000000000000000000000000000000000000008152600401611ebd90612f27565b60405180910390fd5b600554811015611f0b576040517f08c379a0000000000000000000000000000000000000000000000000000000008152600401611f029061371d565b60405180910390fd5b600654811115611f50576040517f08c379a0000000000000000000000000000000000000000000000000000000008152600401611f4790613789565b60405180910390fd5b6000600454905081600481905550600160009054906101000a900473ffffffffffffffffffffffffffffffffffffffff1673ffffffffffffffffffffffffffffffffffffffff167f5ba9db2b02818fbbd3b899467553e5d6f1e190e819ee6a38c6562a04a6194f6b828442604051611fca93929190612fd9565b60405180910390a25050565b61271081565b600160009054906101000a900473ffffffffffffffffffffffffffffffffffffffff1673ffffffffffffffffffffffffffffffffffffffff163373ffffffffffffffffffffffffffffffffffffffff161461206c576040517f08c379a000000000000000000000000000000000000000000000000000000000815260040161206390612f27565b60405180910390fd5b600c60009054906101000a900460ff16156120bc576040517f08c379a00000000000000000000000000000000000000000000000000000000081526004016120b39061305c565b60405180910390fd5b60005b600d8054905081101561217c576000600d82815481106120e2576120e16137a9565b5b9060005260206000200160009054906101000a900473ffffffffffffffffffffffffffffffffffffffff169050600e60008273ffffffffffffffffffffffffffffffffffffffff1673ffffffffffffffffffffffffffffffffffffffff16815260200190815260200160002060030160019054906101000a900460ff161561216e5761216d816128c8565b5b5080806001019150506120bf565b503373ffffffffffffffffffffffffffffffffffffffff167fe4e801442ed461792c0bdfa7f5c25444d391d67d68422437bd9005796c67cb23600d80549050426040516121ca929190613504565b60405180910390a2565b600e60003373ffffffffffffffffffffffffffffffffffffffff1673ffffffffffffffffffffffffffffffffffffffff16815260200190815260200160002060030160019054906101000a900460ff16612263576040517f08c379a000000000000000000000000000000000000000000000000000000000815260040161225a906132db565b60405180910390fd5b600c60009054906101000a900460ff166122b2576040517f08c379a00000000000000000000000000000000000000000000000000000000081526004016122a990613824565b60405180910390fd5b6000600e60003373ffffffffffffffffffffffffffffffffffffffff1673ffffffffffffffffffffffffffffffffffffffff1681526020019081526020016000206000015490506000811161233c576040517f08c379a000000000000000000000000000000000000000000000000000000000815260040161233390613347565b60405180910390fd5b6000600e60003373ffffffffffffffffffffffffffffffffffffffff1673ffffffffffffffffffffffffffffffffffffffff168152602001908152602001600020600001819055506000600e60003373ffffffffffffffffffffffffffffffffffffffff1673ffffffffffffffffffffffffffffffffffffffff16815260200190815260200160002060030160016101000a81548160ff02191690831515021790555080600760008282546123f191906131b9565b92505081905550600360009054906101000a900473ffffffffffffffffffffffffffffffffffffffff1673ffffffffffffffffffffffffffffffffffffffff1663a9059cbb33836040518363ffffffff1660e01b8152600401612455929190613221565b6020604051808303816000875af1158015612474573d6000803e3d6000fd5b505050506040513d601f19601f820116820180604052508101906124989190613393565b6124d7576040517f08c379a00000000000000000000000000000000000000000000000000000000081526004016124ce90613890565b60405180910390fd5b3373ffffffffffffffffffffffffffffffffffffffff167f02f25270a4d87bea75db541cdfe559334a275b4a233520ed6c0a2429667cca9482600042604051612522939291906138eb565b60405180910390a250565b6000600d805490508210612576576040517f08c379a000000000000000000000000000000000000000000000000000000000815260040161256d9061396e565b60405180910390fd5b600d828154811061258a576125896137a9565b5b9060005260206000200160009054906101000a900473ffffffffffffffffffffffffffffffffffffffff169050919050565b600a5481565b60075481565b600160009054906101000a900473ffffffffffffffffffffffffffffffffffffffff1673ffffffffffffffffffffffffffffffffffffffff163373ffffffffffffffffffffffffffffffffffffffff1614612658576040517f08c379a000000000000000000000000000000000000000000000000000000000815260040161264f90612f27565b60405180910390fd5b600073ffffffffffffffffffffffffffffffffffffffff168173ffffffffffffffffffffffffffffffffffffffff16036126c7576040517f08c379a00000000000000000000000000000000000000000000000000000000081526004016126be906139da565b60405180910390fd5b600160009054906101000a900473ffffffffffffffffffffffffffffffffffffffff1673ffffffffffffffffffffffffffffffffffffffff168173ffffffffffffffffffffffffffffffffffffffff1603612757576040517f08c379a000000000000000000000000000000000000000000000000000000000815260040161274e90613a46565b60405180910390fd5b6000600160009054906101000a900473ffffffffffffffffffffffffffffffffffffffff16905081600160006101000a81548173ffffffffffffffffffffffffffffffffffffffff021916908373ffffffffffffffffffffffffffffffffffffffff1602179055508173ffffffffffffffffffffffffffffffffffffffff168173ffffffffffffffffffffffffffffffffffffffff167f4c37b24b600916176446859ec41fb06842ec1dfaeeb0bee28784b51f24b8c3084260405161281c9190612a71565b60405180910390a35050565b6000600e60008373ffffffffffffffffffffffffffffffffffffffff1673ffffffffffffffffffffffffffffffffffffffff168152602001908152602001600020600201549050919050565b600d818154811061288457600080fd5b906000526020600020016000915054906101000a900473ffffffffffffffffffffffffffffffffffffffff1681565b600281565b6000600854905090565b60065481565b6000600e60008373ffffffffffffffffffffffffffffffffffffffff1673ffffffffffffffffffffffffffffffffffffffff168152602001908152602001600020600101549050804311801561292057506000600754115b15612a54576000814361293391906131b9565b90506000600e60008573ffffffffffffffffffffffffffffffffffffffff1673ffffffffffffffffffffffffffffffffffffffff1681526020019081526020016000206000015490506000811115612a0a57600060075482846004546129999190613117565b6129a39190613117565b6129ad9190613188565b905080600e60008773ffffffffffffffffffffffffffffffffffffffff1673ffffffffffffffffffffffffffffffffffffffff1681526020019081526020016000206002016000828254612a0191906131ed565b92505081905550505b43600e60008673ffffffffffffffffffffffffffffffffffffffff1673ffffffffffffffffffffffffffffffffffffffff1681526020019081526020016000206001018190555050505b5050565b6000819050919050565b612a6b81612a58565b82525050565b6000602082019050612a866000830184612a62565b92915050565b600081519050919050565b600082825260208201905092915050565b60005b83811015612ac6578082015181840152602081019050612aab565b60008484015250505050565b6000601f19601f8301169050919050565b6000612aee82612a8c565b612af88185612a97565b9350612b08818560208601612aa8565b612b1181612ad2565b840191505092915050565b60006020820190508181036000830152612b368184612ae3565b905092915050565b600080fd5b600073ffffffffffffffffffffffffffffffffffffffff82169050919050565b6000612b6e82612b43565b9050919050565b612b7e81612b63565b8114612b8957600080fd5b50565b600081359050612b9b81612b75565b92915050565b600060208284031215612bb757612bb6612b3e565b5b6000612bc584828501612b8c565b91505092915050565b60008115159050919050565b612be381612bce565b82525050565b600061010082019050612bff600083018b612a62565b612c0c602083018a612a62565b612c196040830189612a62565b612c266060830188612bda565b612c336080830187612bda565b612c4060a0830186612a62565b612c4d60c0830185612a62565b612c5a60e0830184612a62565b9998505050505050505050565b612c7081612a58565b8114612c7b57600080fd5b50565b600081359050612c8d81612c67565b92915050565b600060208284031215612ca957612ca8612b3e565b5b6000612cb784828501612c7e565b91505092915050565b60008060408385031215612cd757612cd6612b3e565b5b6000612ce585828601612c7e565b9250506020612cf685828601612c7e565b9150509250929050565b6000819050919050565b6000612d25612d20612d1b84612b43565b612d00565b612b43565b9050919050565b6000612d3782612d0a565b9050919050565b6000612d4982612d2c565b9050919050565b612d5981612d3e565b82525050565b6000602082019050612d746000830184612d50565b92915050565b6000612d8582612d2c565b9050919050565b612d9581612d7a565b82525050565b6000602082019050612db06000830184612d8c565b92915050565b6000602082019050612dcb6000830184612bda565b92915050565b600060a0820190508181036000830152612deb8188612ae3565b9050612dfa6020830187612a62565b612e076040830186612a62565b612e146060830185612a62565b612e216080830184612bda565b9695505050505050565b612e3481612b63565b82525050565b6000602082019050612e4f6000830184612e2b565b92915050565b7f4e487b7100000000000000000000000000000000000000000000000000000000600052602260045260246000fd5b60006002820490506001821680612e9c57607f821691505b602082108103612eaf57612eae612e55565b5b50919050565b7f4f6e6c79206f776e65722063616e2063616c6c20746869732066756e6374696f60008201527f6e00000000000000000000000000000000000000000000000000000000000000602082015250565b6000612f11602183612a97565b9150612f1c82612eb5565b604082019050919050565b60006020820190508181036000830152612f4081612f04565b9050919050565b7f4c6f636b20706572696f642063616e6e6f74206578636565642031303030302060008201527f626c6f636b730000000000000000000000000000000000000000000000000000602082015250565b6000612fa3602683612a97565b9150612fae82612f47565b604082019050919050565b60006020820190508181036000830152612fd281612f96565b9050919050565b6000606082019050612fee6000830186612a62565b612ffb6020830185612a62565b6130086040830184612a62565b949350505050565b7f436f6e747261637420697320696e20656d657267656e63792073746f70000000600082015250565b6000613046601d83612a97565b915061305182613010565b602082019050919050565b6000602082019050818103600083015261307581613039565b9050919050565b7f4e6f207265776172647320746f20636c61696d00000000000000000000000000600082015250565b60006130b2601383612a97565b91506130bd8261307c565b602082019050919050565b600060208201905081810360008301526130e1816130a5565b9050919050565b7f4e487b7100000000000000000000000000000000000000000000000000000000600052601160045260246000fd5b600061312282612a58565b915061312d83612a58565b925082820261313b81612a58565b91508282048414831517613152576131516130e8565b5b5092915050565b7f4e487b7100000000000000000000000000000000000000000000000000000000600052601260045260246000fd5b600061319382612a58565b915061319e83612a58565b9250826131ae576131ad613159565b5b828204905092915050565b60006131c482612a58565b91506131cf83612a58565b92508282039050818111156131e7576131e66130e8565b5b92915050565b60006131f882612a58565b915061320383612a58565b925082820190508082111561321b5761321a6130e8565b5b92915050565b60006040820190506132366000830185612e2b565b6132436020830184612a62565b9392505050565b600060808201905061325f6000830187612a62565b61326c6020830186612a62565b6132796040830185612a62565b6132866060830184612a62565b95945050505050565b7f55736572206973206e6f74207374616b696e6700000000000000000000000000600082015250565b60006132c5601383612a97565b91506132d08261328f565b602082019050919050565b600060208201905081810360008301526132f4816132b8565b9050919050565b7f4e6f20746f6b656e7320746f2077697468647261770000000000000000000000600082015250565b6000613331601583612a97565b915061333c826132fb565b602082019050919050565b6000602082019050818103600083015261336081613324565b9050919050565b61337081612bce565b811461337b57600080fd5b50565b60008151905061338d81613367565b92915050565b6000602082840312156133a9576133a8612b3e565b5b60006133b78482850161337e565b91505092915050565b7f496e76616c69642072616e676500000000000000000000000000000000000000600082015250565b60006133f6600d83612a97565b9150613401826133c0565b602082019050919050565b60006020820190508181036000830152613425816133e9565b9050919050565b7f4d6178206d757374206265203e20300000000000000000000000000000000000600082015250565b6000613462600f83612a97565b915061346d8261342c565b602082019050919050565b6000602082019050818103600083015261349181613455565b9050919050565b7f4e6f206665657320746f20776974686472617700000000000000000000000000600082015250565b60006134ce601383612a97565b91506134d982613498565b602082019050919050565b600060208201905081810360008301526134fd816134c1565b9050919050565b60006040820190506135196000830185612a62565b6135266020830184612a62565b9392505050565b60006040820190506135426000830185612bda565b61354f6020830184612a62565b9392505050565b7f50656e616c74792063616e6e6f74206578636565642032302500000000000000600082015250565b600061358c601983612a97565b915061359782613556565b602082019050919050565b600060208201905081810360008301526135bb8161357f565b9050919050565b7f4665652063616e6e6f7420657863656564203130250000000000000000000000600082015250565b60006135f8601583612a97565b9150613603826135c2565b602082019050919050565b60006020820190508181036000830152613627816135eb565b9050919050565b7f416d6f756e74206d7573742062652067726561746572207468616e2030000000600082015250565b6000613664601d83612a97565b915061366f8261362e565b602082019050919050565b6000602082019050818103600083015261369381613657565b9050919050565b60006060820190506136af6000830186612e2b565b6136bc6020830185612e2b565b6136c96040830184612a62565b949350505050565b7f42656c6f77206d696e696d756d00000000000000000000000000000000000000600082015250565b6000613707600d83612a97565b9150613712826136d1565b602082019050919050565b60006020820190508181036000830152613736816136fa565b9050919050565b7f41626f7665206d6178696d756d00000000000000000000000000000000000000600082015250565b6000613773600d83612a97565b915061377e8261373d565b602082019050919050565b600060208201905081810360008301526137a281613766565b9050919050565b7f4e487b7100000000000000000000000000000000000000000000000000000000600052603260045260246000fd5b7f4e6f7420696e20656d657267656e637900000000000000000000000000000000600082015250565b600061380e601083612a97565b9150613819826137d8565b602082019050919050565b6000602082019050818103600083015261383d81613801565b9050919050565b7f5472616e73666572206661696c65640000000000000000000000000000000000600082015250565b600061387a600f83612a97565b915061388582613844565b602082019050919050565b600060208201905081810360008301526138a98161386d565b9050919050565b6000819050919050565b60006138d56138d06138cb846138b0565b612d00565b612a58565b9050919050565b6138e5816138ba565b82525050565b60006060820190506139006000830186612a62565b61390d60208301856138dc565b61391a6040830184612a62565b949350505050565b7f496e646578206f7574206f6620626f756e647300000000000000000000000000600082015250565b6000613958601383612a97565b915061396382613922565b602082019050919050565b600060208201905081810360008301526139878161394b565b9050919050565b7f5a65726f20616464726573730000000000000000000000000000000000000000600082015250565b60006139c4600c83612a97565b91506139cf8261398e565b602082019050919050565b600060208201905081810360008301526139f3816139b7565b9050919050565b7f416c7265616479206f776e657200000000000000000000000000000000000000600082015250565b6000613a30600d83612a97565b9150613a3b826139fa565b602082019050919050565b60006020820190508181036000830152613a5f81613a23565b905091905056fea26469706673582212201bc9e1fddac0f2adcd46819f8b42cf2a5f88b4a9168d3b1fe48f7ab6fffe90ec64736f6c63430008160033",
  "linkReferences": {},
  "deployedLinkReferences": {}
}